:020000040800F2
:10000000401400203903000845010008470100089A
:10001000490100084B0100084D01000800000000E4
:100020000000000000000000000000004F01000878
:1000300051010008000000005301000855010008AC
:100040005303000853030008530300085303000838
:100050005303000853030008530300085303000828
:100060005303000853030008530300085303000818
:100070005303000853030008530300085303000808
:1000800053030008530300085303000853030008F8
:1000900053030008530300085303000853030008E8
:1000A00053030008530300085303000853030008D8
:1000B00053030008530300085303000853030008C8
:1000C00053030008530300085303000853030008B8
:1000D00053030008B71A000853030008530300082D
:1000E0005303000853030008530300085303000898
:1000F0005303000853030008530300085303000888
:100100005303000853030008530300085303000877
:100110005303000853030008530300085303000867
:100120005303000853030008530300085303000857
:10013000DFF80CD009F046FA0048004789130008A0
:1001400040140020704770477047704770477047F1
:1001500070477047704700000CB500200190009078
:100160006C48006840F480306A49086000BF694804
:10017000006800F4003000900198401C0190009845
:1001800018B90198B0F5A06FF1D16248006800F489
:10019000003010B10120009001E000200090009894
:1001A000012843D15C48006840F010005A490860BB
:1001B0000846006820F0030008600846006840F028
:1001C0000200086053484068524948600846406849
:1001D00048600846406840F48060486008464068CF
:1001E00020F47C1048600846406840F4E8104860FD
:1001F0000846006840F08070086000BF454800680D
:1002000000F000700028F9D04248406820F0030058
:10021000404948600846406840F00200486000BF1E
:100220003C48406800F00C000828F9D10CBD10B51E
:10023000FFF792FF10BD10B53648006840F001008E
:1002400034490860084640683449084031494860EC
:1002500008460068324908402E4908600846006890
:1002600020F4802008600846406820F4FE004860C2
:100270004FF41F008860FFF7DAFF4FF00060294954
:10028000086010BD10B5002100200022214B5B68E2
:1002900003F00C0121B1042906D0082928D107E078
:1002A000214B224C236027E01F4B204C236023E08E
:1002B000184B5B6803F47010164B5B6803F48032D4
:1002C000022303EB904022B9194B4343174C2360A0
:1002D0000DE0104B5B6803F4003323B1144B434330
:1002E000124C236003E0104B4343104C236003E0A7
:1002F0000D4B0E4C236000BF00BF064B5B68C3F381
:1003000003130C4CE15C094B1B68CB40074C23608A
:1003100010BD000000100240002002400000FFF865
:10032000FFFFF6FE08ED00E000127A00000000205A
:1003300000093D00040000200648804706480047A9
:10034000FEE7FEE7FEE7FEE7FEE7FEE7FEE7FEE785
:10035000FEE7FEE73702000831010008314901439A
:10036000314A1160704770B5002100230F22C47814
:1003700004B32D4C246804F4E064C4F5E064210A5D
:10038000C1F10403CA40447804FA03F184781440AC
:1003900021430901254C0678A155047804F01F0576
:1003A0000124AC4005786D11AD0005F1E025C5F8DC
:1003B000004109E0047804F01F050124AC401C4D05
:1003C0000678761145F8264070BD1A4A0A40024365
:1003D000154B1B1F1A60704739B1134A121D126862
:1003E0000243114B1B1D1A6006E00F4A121D1268D2
:1003F00082430D4B1B1D1A607047042808D14FF033
:10040000E021096941F004014FF0E022116107E0A9
:100410004FF0E021096921F004014FF0E022116161
:10042000704700000000FA050CED00E000E400E079
:1004300080E100E080FFFF1F10B50446CC488442F5
:1004400008D10121042000F02DFB0021042000F040
:1004500029FB46E0C748844208D10121082000F06A
:1004600021FB0021082000F01DFB3AE0C248844235
:1004700008D10121102000F015FB0021102000F010
:1004800011FB2EE0BD48844208D10121202000F05C
:1004900009FB0021202000F005FB22E0B84884423F
:1004A00008D10121402000F0FDFA0021402000F099
:1004B000F9FA16E0B348844208D10121802000F007
:1004C000F1FA0021802000F0EDFA0AE0AE48844203
:1004D00007D10121801500F0E5FA0021A01500F0F8
:1004E000E1FA10BD10B50121084600F0DBFA002149
:1004F000012000F0D7FA10BD2DE9F0410246002599
:100500000026002000230024002791F803C00CF0EF
:100510000F0591F803C00CF0100CBCF1000F03D0D4
:1005200091F802C04CEA050591F800C0BCF1000F3B
:1005300031D0146800202BE04FF0010C0CFA00F3CE
:10054000B1F800C00CEA03069E4220D183004FF0B0
:100550000F0C0CFA03F7BC4305FA03FC4CEA040445
:1005600091F803C0BCF1280F06D14FF0010C0CFA32
:1005700000FCC2F814C00AE091F803C0BCF1480FB7
:1005800005D14FF0010C0CFA00FCC2F810C0401C61
:100590000828D1D31460B1F800C0BCF1FF0F34DDDE
:1005A000546800202EE000F1080C4FF0010808FA12
:1005B0000CF3B1F800C00CEA03069E4221D183007F
:1005C0004FF00F0C0CFA03F7BC4305FA03FC4CEA9E
:1005D000040491F803C0BCF1280F05D100F1080C08
:1005E00008FA0CF8C2F8148091F803C0BCF1480F67
:1005F00007D100F1080C4FF0010808FA0CF8C2F816
:100600001080401C0828CED35460BDE8F0814FF61E
:10061000FF710180022181700421C1707047024680
:10062000002093680B400BB1012000E000207047D0
:100630000146886880B2704702460020D3680B40AC
:100640000BB1012000E0002070470146C86880B26D
:10065000704701617047416170470AB1016100E074
:1006600041617047C16070474FF480320A43826134
:100670008161826182698269704702460020434B32
:1006800018684FF68073184040EA021008433F4B49
:10069000186070473E49C8617047F0B50A460023AC
:1006A00000240021002500F00046B6F1004F02D1E1
:1006B000364EF16901E0354E7168C0F3034583B2EF
:1006C00000F44016B6F5401F08D121F070612F4E9E
:1006D000766826F070662D4F7E6012E000F480167A
:1006E000B6F5801F06D1032606FA05F4A14341F0B2
:1006F000706106E0460D360103FA06F6B14341F09B
:10070000706122B1460D360103FA06F6314300F05E
:100710000046B6F1004F02D11C4EF16101E01B4EC4
:100720007160F0BD30B500228B071C0F0F2303FA58
:1007300004F2164B08338C1053F824309343134CB7
:1007400008348D1044F8253023468C1053F824309B
:100750008C07240F00FA04F423430C4C08348D104A
:1007600044F8253030BD0A49DC310860704700008C
:1007700000080140000C014000100140001401403D
:1007800000180140001C0140002001400000014011
:1007900000002042DF48006840F00100DD490860A9
:1007A00008464068DC490840DA4948600846006865
:1007B000DA490840D74908600846006820F48020DC
:1007C00008600846406820F4FE0048604FF41F00AF
:1007D00088607047CF49096821F48031CD4A1160A3
:1007E0001146096821F480211160B0F5803F03D0E3
:1007F000B0F5802F0ED106E0C649096841F480317A
:10080000C44A116007E0C349096841F4A021C14A04
:10081000116000E000BF00BF704710B50146002224
:10082000002300204A11012A02D1BA4C236806E0B5
:10083000022A02D1B74C236A01E0B64C636A01F088
:100840001F02012494401C400CB1012000E0002054
:1008500010BD38B5002000900024002500BF3120D5
:10086000FFF7DBFF05460098401C00900098B0F5AC
:10087000A06F01D0002DF2D03120FFF7CEFF08B1DC
:10088000012400E00024204638BD01460020A14A92
:10089000106820F0F80040EAC10010607047A049DD
:1008A00008607047024600209A4B586820F47C107C
:1008B00042EA01031843974B58607047984908660D
:1008C000704701460020934A506820F00300084317
:1008D000506070478F48406800F00C007047014638
:1008E00000208C4A506820F0F000084350607047A8
:1008F00001460020874A506820F4E06008435060B9
:10090000704701460020834A506820F4605040EA56
:10091000C1005060704729B17E4A527A02437D4B34
:100920005A7204E07B4A527A82437A4B5A72704779
:100930007B49D8310860704701460020754A5068ED
:1009400020F440400843506070470021714A203233
:100950001170704A82F82010012802D004280AD1B0
:1009600004E001216B4A2032117005E00521694A3B
:100970002032117000E000BF00BF70476949086075
:1009800070476449096A0143624A116270476549C8
:1009900044390860704730B500210022002400234C
:1009A0005C4D6D6805F00C0121B1042905D00829C2
:1009B00023D105E05C4D056022E05B4D05601FE042
:1009C000544D6D6805F47012524D6D6805F4803415
:1009D000022505EB92421CB9544D554305600BE0CE
:1009E0004C4D6D6805F400351DB1504D5543056003
:1009F00002E04D4D5543056002E04B4D056000BFE0
:100A000000BF444D6D6805F0F0010909484D6B5C6D
:100A10000568DD4045603F4D6D6805F4E061090AF9
:100A2000434D6B5C4568DD4085603A4D6D6805F46B
:100A30006051C90A3E4D6B5C4568DD40C560354D6F
:100A40006D6805F44041890B3A4D6B5CC568B5FB98
:100A5000F3F5056130BD29B12E4A526902432D4B91
:100A60005A6104E02B4A526982432A4B5A6170470B
:100A700029B1284A92690243264B9A6104E0254A2B
:100A800092698243234B9A61704729B1214AD26906
:100A90000243204BDA6104E01E4AD26982431D4BB7
:100AA000DA61704729B11B4AD2680243194BDA60F8
:100AB00004E0184AD2688243164BDA60704729B1C5
:100AC000144A12690243134B1A6104E0114A126975
:100AD0008243104B1A6170471249403908607047D1
:100AE0000F49C86470470B49C87170470948406A8C
:100AF00040F0807007494862704701460020054A6F
:100B000092680A400AB1012000E0002070470149C4
:100B100088727047001002400000FFF8FFFFF6FEE9
:100B2000000042428004424200127A0000093D0067
:100B3000140000202400002010B50446FB48844225
:100B400009D101218803FFF7ADFF00214FF4804058
:100B5000FFF7A8FF32E0F648844209D1012148049A
:100B6000FFF7ADFF00214FF40030FFF7A8FF25E0AD
:100B7000F048844209D101218804FFF7A0FF002139
:100B80004FF48020FFF79BFF18E0EB48844209D127
:100B90000121C804FFF793FF00214FF40020FFF765
:100BA0008EFF0BE0E548844208D101210805FFF7DC
:100BB00086FF00214FF48010FFF781FF10BD2DE963
:100BC000F04786B005460E460024A24600BFA14667
:100BD0000027B08900B100BF2F462C8A4CF6FF7069
:100BE0000440F08804432C82AC894EF6F310044094
:100BF000B08831890843718908430443AC81AC8AC9
:100C00004FF6FF400440B0890443AC8201A8FFF7CF
:100C1000C2FEC648874202D1DDF810A001E0DDF82F
:100C20000CA0A88900F4004040B10AEBCA0000EB18
:100C30000A1031684900B0FBF1F807E00AEBCA007E
:100C400000EB0A1031688900B0FBF1F86420B8FBB2
:100C5000F0F004012009642101FB1089A88900F447
:100C6000004040B1322000EBC900B0FBF1F000F0D1
:100C70000700044308E0322000EB09106421B0FBB8
:100C8000F1F000F00F0004432C8106B0BDE8F087BE
:100C90004FF41651016000218180C18001810C2137
:100CA000418100218181704710B502460020108AE1
:100CB0004FF2FF0318400B884C8823438C88234352
:100CC000CC8823431843108210BD0021018041804D
:100CD0008180C180704721B1828942F400528281B3
:100CE00004E082894DF6FF731A4082817047F0B5A7
:100CF0000346002400260025002040F66A17B9426A
:100D000000D100BF1846C1F3421401F01F060127AD
:100D100007FA06F5012C01D10C3004E0022C01D1B8
:100D2000103000E014301AB107682F43076002E06A
:100D30000768AF430760F0BD1AB1838A0B43838213
:100D400002E0838A8B4383827047028A4FF6F073F6
:100D50001A400282028A0A430282704782894FF255
:100D6000FF731A40828182890A438281704721B1D0
:100D7000828942F00202828104E082894FF6FD738B
:100D80001A4082817047028A4FF6DF731A4002824E
:100D9000028A0A430282704721B1028A42F48042E9
:100DA000028204E0028A4BF6FF731A400282704707
:100DB000C1F308028280704701468888C0F30800AA
:100DC0007047818941F0010181817047028BD2B265
:100DD0000283028B42EA012202837047028B02F4F3
:100DE0007F420283028B0A430283704721B1828AC9
:100DF00042F02002828204E0828A4FF6DF731A40BA
:100E00008282704721B1828A42F01002828204E01D
:100E1000828A4FF6EF731A408282704721B1828A2C
:100E200042F00802828204E0828A4FF6F7731A4089
:100E30008282704721B1828942F40042828103E0BC
:100E40008289C2F30E028281704721B1828A42F404
:100E50000062828204E0828A4FF2FF731A4082822B
:100E60007047828A4FF6FB731A408282828A0A4355
:100E70008282704721B1828A42F00202828204E0BB
:100E8000828A4FF6FD731A40828270470246002024
:100E9000B1F5007F00D100BF13880B400BB10120DA
:100EA00000E00020704701F40072B2F5007F00D12D
:100EB00000BFCA430280704770B502460024002379
:100EC0000025002040F66A16B14200D100BFC1F3F0
:100ED000421501F01F03012606FA03F3012D02D18A
:100EE0009689334006E0022D02D1168A334001E094
:100EF000968A33400C12012606FA04F41688344010
:100F000013B10CB1012000E0002070BD10B500222B
:100F1000002340F66A14A14200D100BF0A12012446
:100F20009440A3B2DC43048010BD000000380140AF
:100F30000044004000480040004C00400050004089
:100F400010B50446BE48844208D101218014FFF741
:100F5000A9FD0021A014FFF7A5FD16E0B9488442C1
:100F600008D101210014FFF7AAFD00212014FFF78A
:100F7000A6FD0AE0B448844207D10121C013FFF75F
:100F80009EFD0021E013FFF79AFD10BD10B5002271
:100F9000028802F441520B884C8823438C882343F7
:100FA000CC8823430C8923434C8923438C892343D6
:100FB000CC8923431A430280838B4FF2FF74234072
:100FC00083830B8A038210BD2DE9F04F85B005465F
:100FD0000C464FF0000902274FF000084FF0010BBC
:100FE0000026B246A88B4FF240010840A883022099
:100FF0002884B5F81C90A068022801D100BF38E011
:10100000A08810B94FF0010B01E04FF0020B8D48A2
:10101000854200D100E000BF6846FFF7BCFCDDF868
:1010200000A0E088B0F5007F0AD14FEA1A2000EB5B
:1010300080004000A168B0FBF1F0401D86B20BE0DB
:101040004FEA4B10BAFBF0F000EB80004000A168C3
:10105000B0FBF1F0401D86B20A20B6FBF0F606F0B8
:101060000108A6EB0800C0F34F074FF6FF7000EA37
:101070000828022F01DBFF2F02DD02274FF00008B6
:10108000E08840EA080038432884A088A189084302
:10109000618808432188084340F4006040EA090958
:1010A000A5F81C9005B0BDE8F08F002101804180BB
:1010B0008180C180018141818181C18107210182BB
:1010C00070470021018041808180C18002218160C0
:1010D00000218181704721B1028842F040020280E4
:1010E00004E002884FF6BF731A400280704721B1B6
:1010F000828B42F48062828304E0828B4FF6FF335E
:101100001A408283704730B5002400230C1101255A
:10111000A540ABB21AB185881D43858002E0858861
:101120009D43858030BD1AB183880B43838002E0E4
:1011300083888B438380704781817047014688890B
:1011400070474FF6FF62914204D0028842F48072E9
:10115000028004E002884FF6FF631A400280704765
:1011600021B1828842F00402828004E082884FF636
:10117000FB731A408280704702884FF2FF731A4057
:10118000028002880A4302807047018841F480513E
:101190000180704721B1028842F40052028004E0CD
:1011A00002884DF6FF731A40028070470246002005
:1011B000012901D0108B00E0908A70470146088A0F
:1011C0007047B1F5804F04D1028842F4804202801A
:1011D00004E002884BF6FF731A4002807047024613
:1011E000002013890B400BB1012000E00020704764
:1011F000CA4302817047F0B5024600200024002354
:10120000002501F00F070126BE40B4B20B110126E4
:101210009E40B3B2968806EA03051689264016B1A9
:101220000DB1012000E00020F0BD10B5002201F05A
:101230000F040123A3409AB2D343038110BD0000E1
:101240000030014000380040003C00404FF0E021F9
:10125000096921F004014FF0E0221161C21700EB8F
:101260005272C2F3C7022B4B1A701946097801EB70
:101270004102C2EBC1114FF6FF7202EAC101264AD8
:10128000118070470146234A12784A434FF0E02309
:101290005A6100229A611A46126942F001021A61EB
:1012A00000BF4FF0E022106900F001021AB100F413
:1012B0008032002AF5D04FF0E022126922F00102BC
:1012C0004FF0E0231A6100229A6170470146124AEA
:1012D00012884A434FF0E0235A6100229A611A466D
:1012E000126942F001021A6100BF4FF0E02210695A
:1012F00000F001021AB100F48032002AF5D04FF05C
:10130000E022126922F001024FF0E0231A6100226C
:101310009A617047280000202A00002010B58CB088
:101320004FF400000790002008904FF4803009909F
:101330000A9000120B9034480490344805903448C9
:10134000069000204FF49061324A8023CDE90032AC
:10135000CDE90210304B314A04A9314803F066FA56
:1013600004460CB010BD10B54FF4A060FEF7F6FFB8
:101370004820FFF76BFF00F073F84FF4165000F0B1
:101380004BFB00F08BF810BDFFF7EDFFFFF7C6FF3A
:1013900000231E2223A1224803F0A6FB0446A32318
:1013A000244A21461E4803F0E2FD002807DA1C48C3
:1013B00003F05BFB054629461FA008F035F92146DE
:1013C000174804F037F90023182216A1144803F037
:1013D0008BFB0446A3231C4A2146114803F0B2FDAF
:1013E000002807DA0E4803F040FB0546294617A0FF
:1013F00008F01AF921460A4804F01CF9124917A00E
:1014000008F012F900BFFEE73D170008DF180008DA
:1014100097160008D8030020580300205801002028
:10142000D80000206D79315F66696C652E696E6940
:10143000000000002C00002020775F6572726E6F44
:101440002025690A000000005808002020725F650E
:1014500072726E6F2025690A0000000025730A0071
:1014600008B501214020FFF703FB7F20ADF8000005
:1014700003208DF8020010208DF80300694606480D
:10148000FFF73AF804481030006880F07F00024906
:101490001031086008BD00000018014000B587B099
:1014A00001212C20FFF7E4FA01210803FFF7E0FAFD
:1014B00001210846FFF7DCFA01210846FFF7EDF8A5
:1014C0000121FE48FFF7E9F80820ADF804000320E9
:1014D0008DF8060018208DF8070001A9F848FFF7DD
:1014E0000BF81020ADF8040003208DF8060001A9C8
:1014F000F348FFF701F82020ADF8040003208DF831
:10150000060001A9EE48FEF7F7FF8020ADF80400C1
:1015100010208DF8070001A9E948FEF7EDFF8021B2
:10152000E748FFF796F80020ADF808004FF4827006
:10153000ADF80A000020ADF80C000220ADF80E0056
:101540000120ADF810004002ADF812003820ADF8CF
:1015500014000020ADF816000720ADF8180002A90D
:10156000D848FFF713FD0121D648FFF7B4FD07B0B7
:1015700000BD10B5044600BF0221D248FFF72FFE80
:101580000028F9D02146CF48FFF7D6FD00BF012142
:10159000CC48FFF724FE0028F9D0CA48FFF7CEFD5B
:1015A000C0B210BD10B500248021C548FFF753F824
:1015B0000520FFF7DEFF00BFFF20FFF7DAFF04463C
:1015C00004F001000028F7D18021BD48FFF741F861
:1015D00010BD10B58021BA48FFF73DF80620FFF78F
:1015E000C8FF8021B648FFF734F810BD70B5044637
:1015F0000D46FFF7EEFFFFF7D5FF8021B048FFF75C
:101600002AF82846FFF7B5FFC4F30740FFF7B1FFFC
:10161000C4F30720FFF7ADFFE0B2FFF7AAFF802178
:10162000A748FFF716F8FFF7BDFF70BD10B5FFF72D
:10163000D0FF8021A248FFF70EF8C720FFF799FFDF
:1016400080219F48FFF705F8FFF7ACFF10BD10B5EC
:10165000002444F6FF7412E080219948FEF7FBFF56
:101660000520FFF786FFA520FFF783FF00F00100AC
:1016700000B906E080219248FEF7EBFF641E002CC3
:10168000EAD100BF80218E48FEF7E3FF0CB10020B5
:1016900010BD0120FCE72DE9F04105460E462F0B59
:1016A0004FF000081FE03C03FFF793FFFFF7CFFF69
:1016B00080218348FEF7CFFF2020FFF75AFFC4F3B5
:1016C0000740FFF756FFC4F30720FFF752FFE0B2D1
:1016D000FFF74FFF80217A48FEF7BBFFFFF7B7FF08
:1016E0007F1C08F10108B045DDD30020BDE8F08182
:1016F00070B505460C46164680217148FEF7ABFFD3
:101700000320FFF736FFC4F30740FFF732FFC4F3AF
:101710000720FFF72EFFE0B2FFF72BFF04E0FF20CA
:10172000FFF727FF28706D1C301EA6F101018EB255
:10173000F5D180216248FEF78CFF70BD70B504467C
:101740000D461646AAB221463046FFF7D1FF0020CB
:1017500070BD70B505460C461646FFF73AFF80216E
:101760005748FEF778FF0220FFF703FFC4F3074056
:10177000FFF7FFFEC4F30720FFF7FBFEE0B2FFF721
:10178000F8FEB6F5807F01DD4FF4807603E028781F
:10179000FFF7EFFE6D1C301EA6F101018EB2F6D1EF
:1017A00080214748FEF755FFFFF7FCFE70BD2DE98D
:1017B000F05F07460E4614464FF00008C146C24689
:1017C0000025AB4606F0FF0ACAF10000C5B220466C
:1017D000E11704EB1161C1F30728E11704EB116174
:1017E0000912A4EB012101F0FF09BAF1000F20D189
:1017F000B8F1000F05D1224631463846FFF7A9FF60
:101800006BE009E04FF4807231463846FFF7A1FFE4
:1018100006F5807607F58077B8F10000A8F10101A0
:1018200001F0FF08EED14A4631463846FFF791FFF6
:1018300053E0B8F1000F18D1A94510DDA9EB050060
:1018400000F0FF0B2A4631463846FFF782FF2E4450
:101850002F445A4631463846FFF77BFF3DE022468B
:1018600031463846FFF775FF37E0601B84B22046EB
:10187000E11704EB1161C1F30728E11704EB1161D3
:101880000912A4EB012101F0FF092A46314638462E
:10189000FFF75FFF2E442F4409E04FF4807231467A
:1018A0003846FFF756FF06F5807607F58077B8F1E2
:1018B0000000A8F1010101F0FF0805E0000230007E
:1018C000000C014000300140E7D1B9F1000F04D015
:1018D0004A4631463846FFF73CFFBDE8F09F70B5F9
:1018E00004460D461646AAB221463046FFF75FFF72
:1018F000002070BD2DE9F0410024002500260027BE
:1019000080214348FEF7A7FE9F20FFF732FEFF200D
:10191000FFF72FFE0546FF20FFF72BFE0646FF20B0
:10192000FFF727FE074680213948FEF792FE28047C
:1019300040EA062040EA07042046BDE8F08110B5E1
:10194000002480213248FEF786FEAB20FFF711FE0F
:10195000FF20FFF70EFEFF20FFF70BFEFF20FFF733
:1019600008FEFF20FFF705FE044680212848FEF709
:1019700070FE204610BD10B5044680212448FEF7B5
:101980006AFE0320FFF7F5FDC4F30740FFF7F1FD02
:10199000C4F30720FFF7EDFDE0B2FFF7EAFD10BD4D
:1019A00010B5FF20FFF7E5FD10BD10B5044600BFE0
:1019B00002211848FFF713FC0028F9D021461548EA
:1019C000FFF7BAFB00BF01211248FFF708FC00280F
:1019D000F9D01048FFF7B2FB10BD10B580210C48BC
:1019E000FEF739FEB920FFF7C4FD80210848FEF755
:1019F00030FE10BD10B580210548FEF72CFEAB204F
:101A0000FFF7B7FD80210248FEF723FE10BD00005E
:101A1000000C01400030014010B586B004460121A1
:101A200044F20400FFF724F84FF40070ADF81400FE
:101A300018208DF8170003208DF8160005A94C48D2
:101A4000FEF75AFD4FF48060ADF8140004208DF8C5
:101A5000170005A94648FEF74FFD01940020ADF898
:101A60000800ADF80A00ADF80C00ADF810000C202D
:101A7000ADF80E0001A93F48FFF7A1F825208DF829
:101A8000000001208DF801008DF802008DF80300A0
:101A90006846FEF768FC012240F225513548FFF701
:101AA00026F901213348FFF716F940213148FFF7A5
:101AB000FAF906B010BD10B540F225512D48FFF7D8
:101AC000FBF9002832D02B48FFF776F9C4B2214643
:101AD0002848FFF76DF928482849098844542748C1
:101AE0000088401C25490880254800785A2809D1DB
:101AF000A52C07D12348007820B9002008800120B8
:101B0000204908701D480088042806DD1D4800781B
:101B1000012802D100201B490870184800881428A9
:101B200002DD0020154908801548047010BD70B50D
:101B300004460D4640210F48FFF7B5F9E1B20D48C4
:101B4000FFF736F900BF40210A48FFF79FF9002848
:101B5000F9D0204670BD10B5044600BF20210548CD
:101B6000FFF794F90028F9D00248FFF725F910BDD6
:101B7000000801400038014028100020D200002059
:101B8000D1000020D000002070B503460C46D96D6E
:101B9000D1E90205284008B9002070BD002214E0F8
:101BA0000E69DD69143502FB0560012696408D68DB
:101BB00035404DB1057805F080052DB90589A54260
:101BC00002D14D684560E8E7521C08789042E7DC96
:101BD0000020E2E72DE9F05F04460D4690464FF005
:101BE0000009E66D3169E069143005FB0017012139
:101BF000A940B068084028B3B8F1000F1BD038786E
:101C000000F08000B8B9387800F0010098B131696F
:101C1000E069143005FB001000F1140AB7F808C0A1
:101C2000D4F81CB022690CFB0B205946524663685D
:101C30009847814600BF0121A940B0688843B06041
:101C4000002038704846BDE8F09F2DE9F05F064659
:101C5000884691464FF0000BF46DD4E9020108402C
:101C6000884202D00020BDE8F09F4FF0FF374FF0D0
:101C7000000A002514E02269F169143105FB0120F6
:101C800061684268891A514509D9017801EA080159
:101C9000494504D161684268A1EB020A2F466D1CD8
:101CA0002078A842E7DC002F05DB012239463046C8
:101CB000FFF790FF83465846D5E730B50346D96D08
:101CC0008868401C08B9002030BD002212E00124C1
:101CD00094408868204060B90D69DC69143402FBC7
:101CE0000450012595408C682C438C604C684460FE
:101CF000EAE7521C08789042E9DC0020E4E770B57E
:101D000005460E4631462846FFF73EFF044624B1FD
:101D1000617800222846FFF75DFF70BD2DE9FC5F6A
:101D2000044688461D46DDF8309000200190E76D9E
:101D30002069281AE169B0FBF1F01FFA80FA5146D8
:101D40002046FFF721FF06467868401C7860EEB118
:101D5000606E401C60667868706072783969E0690E
:101D6000143002FB001000F1140A00BF2069281A89
:101D7000E169B0FBF1F201FB120000EB0A0B4A46ED
:101D800059460D9807F09EFB00BF63E008F0030082
:101D9000012806D12368494628460D9A9847BDE890
:101DA000FC9FA06E401CA066002280212046FFF709
:101DB0004CFF01902046FFF780FF0646EEB302205D
:101DC00030702069281AE169B0FBF1F03081206998
:101DD000281AE169B0FBF1F201FB1200281A009009
:101DE00096F801E0D7F810C0E06914300EFB00C08F
:101DF00000F114022368E169009898478246BAF11D
:101E0000000F01D0CDF804A072783969E069143070
:101E100002FB001000F1140B00BF2069281AE169D1
:101E2000B0FBF1F201FB120058444A460146009013
:101E30000D9807F047FB00BF0CE0FFE72368494619
:101E400028460D9A98478246BAF1000F01D0CDF886
:101E500004A000BF0198A2E72DE9FC5F04460E46EE
:101E60001F46DDE90C9A2069381AE169B0FBF1F0F0
:101E700080B20190D4F85C8020460199FFF784FE7F
:101E80000546002D41D006F01C0018283DD006F074
:101E90001C0070B906F0030058B169780022204692
:101EA000FFF798FE52464946384663689847BDE8B2
:101EB000FC9F6A78D8F81010E069143002FB00101B
:101EC00000F1140B00BF2069381AE169B0FBF1F290
:101ED00001FB120058444A465146009007F0F2FABE
:101EE00000BFD8F80400401CC8F80400D8F804006B
:101EF0006860287800F0020028B15246494638460A
:101F000063689847D3E70020D1E7524649463846F0
:101F100063689847CBE770B503460C46D96DD1E9A5
:101F20000205284008B9002070BD002213E00E69A8
:101F3000DD69143502FB0560012696408D68354049
:101F400045B1057805F0800525B10589E688B542DB
:101F500000D1E9E7521C08789042E8DC0020E3E772
:101F600070B506460D46002280213046FFF76DFE13
:101F70003046FFF7A2FE04460CB9002070BD802059
:101F80002070E88820812C622046F7E72DE9F04197
:101F900006460C460CB9BDE8F081F76B00250BE056
:101FA00005EB450107EB0110818821B1016AA142CF
:101FB00001D1002101626D1C306CA842F0D861781B
:101FC00000223046FFF706FE0020208100BFE2E736
:101FD0002DE9F04385B00446E06D10B905B0BDE8C9
:101FE000F083D4F860900027A9F11400E16914315E
:101FF000B0FBF1F8B8F1000F00DCEFE7002503E0DB
:102000007F0047F001076D1C4545F9DB1421684648
:1020100007F071FA08F0FF008DF80000E06D143051
:1020200004904FF0FF300290039700BF14226946DE
:10203000E06D07F047FA00BFE66D3278E3691433CC
:1020400002FB03F1306907F056FAD6E90201884332
:10205000B060002506E03269E069143005FB00201D
:1020600045706D1C9DF80000A842F4DC00BFB5E788
:102070002DE9FC5F0446894615469A46DDF830B0E6
:10208000E0693038B5EB500F01D2002009E0E0697B
:102090003038A5EB5001E06908384008B1FBF0F09A
:1020A000401C1FFA80F849F40041002342462046B4
:1020B000CDF800B004F0FAFB074600BF002F02DAAB
:1020C0003846BDE8FC9F00BFBBF80010E2692069FC
:1020D00001FB0206B8F1000F04D1302000EB4500EF
:1020E000064415E0E0693038B5EB500F01D22846C0
:1020F0000AE0E0693038A5EB5001E0690838400893
:10210000B1FBF0F200FB1210082101EB4000064485
:102110000220334600221521CDE9000A2046FFF7B0
:10212000FDFD07463846CCE72DE9FF4104460F4642
:1021300090461D46002000900190CDE90205B8F8B8
:10214000001003464246204604F02EFE064600BF1D
:10215000002E03DA304604B0BDE8F08100BFE0692C
:10216000801F0090E169206907FB0100831D298819
:10217000D4F81CC0206901FB0C00821D0021204600
:1021800004F080F8064600BF002E01DA3046E2E790
:1021900000BF3046DFE72DE9FF4F85B00446154606
:1021A0009A46BDF8180040F40040069003A800903D
:1021B000A18C04AB2046A26A04F0DEFA064600BFFA
:1021C000002E03DA304609B0BDE8F08F00BFD4E935
:1021D0000601B0FBF1F04000B0FBF1F0012801D2A4
:1021E000012006E0D4E90601B0FBF1F04000B0FBAD
:1021F000F1F003990844D4E90612B1FBF2F1BDF8FD
:10220000102002FB010087B2E0693038B5EB500FB7
:1022100001D2002009E0E0693038A5EB5001E06907
:1022200008384008B1FBF0F0401C1FFA80F8B8F104
:10223000000F01D1039512E0E0693038B5EB500F83
:1022400001D228460AE0E0693038A5EB5001E06988
:1022500008384008B1FBF0F200FB12100390616BEC
:10226000E069CDE90001E2692169129800FB0213DF
:10227000002215212046FFF751FD064600BF002E23
:1022800001DA30469FE700BFD4F83490B9F8000077
:10229000BDF81810884205D03946204604F07BFE70
:1022A000FE4890E7B9F80200404506D0394620467E
:1022B00004F071FEF948401E85E799F8040000F02B
:1022C000C700C02806D03946204604F064FEF34813
:1022D000801E78E7B8F1000F04D1606B303020F831
:1022E00015A015E0E0693038B5EB500F01D2284653
:1022F0000AE0E0693038A5EB5001E0690838400891
:10230000B1FBF0F200FB1210616B083121F810A054
:10231000616BE069CDE90001E169206907FB010318
:10232000002207212046FFF797FD064600BF002E3A
:1023300001DA304647E700BFD4E90601B0FBF1F00F
:10234000B7FBF0F02269A16900FB0121D4E9060284
:10235000B0FBF2F0B7FBF0F200FB1272D4E9060317
:10236000B0FBF3F04000B0FBF3F0012801D20120F4
:1023700006E0D4E90603B0FBF3F04000B0FBF3F055
:10238000101A01EB400B06A802215B460022CDE9A2
:10239000001004212046FFF75FFD064600BF002E17
:1023A00001DA30460FE700BF2046129904F0F3FD32
:1023B0000646304607E77FB504460E4603A80023CD
:1023C0001A4631460090204604F070FA0546B3489C
:1023D0003130854202D1002004B070BD00BF002D15
:1023E00001DA2846F8E700BFFF2002909DF80800B8
:1023F00020F04000029002A80121CDE90010BDF8B4
:102400000C20E169206902FB0100031D0022042168
:102410002046FFF721FD05462846DDE71FB58EB0B3
:1024200000200D900C900F9820B91098007900F0C2
:10243000800050B94FF6FF710F98884226D110984E
:10244000007900F001000028F8D101211698016000
:1024500001200D901098007900F00400002873D03E
:102460000BA80090109840880990109800880AAB3B
:1024700008900146099A0E98FFF7FAFD0C908749DB
:1024800031310C98884202D100200C90CCE000BF82
:102490000C98002802DA0C9812B010BD00BFBDF8ED
:1024A000281011988142F1D109ABDDE910210E9875
:1024B000FFF73AFE0C9000BF0C98002801DA0C9848
:1024C000EAE700BF012116980160BDF82C000090DA
:1024D000109840880890109800880790BDF8243024
:1024E0000146089A0E98FFF756FE0C906B490C981F
:1024F00088422ADCC91E0C98884226DDBDF82410CB
:102500000E9804F048FD0C9000BF0C98002801DAEA
:102510000C98C1E700BF10980088014608900E98FB
:10252000FFF749FF0C9000BF0E98C06E58B110988D
:10253000008808900E98C06E002307900621184668
:10254000DDE90742A04714E01BE000BF0E98C06E13
:1025500070B11098408808901098008807900E98E5
:10256000C06E069002210020DDE90642089BA047CC
:1025700000BF00BF0C98002801DA0C988CE700BF60
:1025800052E0002000901098408809901098008830
:1025900040F4004008900146119B099A0E9804F0FF
:1025A00085F90C903D4931310C98884235D1002095
:1025B00000901098008840F4004000231A4601461D
:1025C00009900E9804F0C6F90C900C9820BB09AB4A
:1025D000DDE910210E98FFF7A7FD0C9000BF0C98C5
:1025E000002801DA0C9857E700BF01211698016016
:1025F00000BF0E98C06E70B1109840880890109877
:10260000008807900E98C06E069003210020DDE937
:102610000642089BA04700BF06E000BF0C980028B8
:1026200001DA0C9838E700BF4FF6FF710F98884227
:102630003DD00F980028FBD01098008840F400414E
:102640000F9840F40040814272D001200D90109804
:10265000007900F080000028EAD01098007900F09E
:102660000200002823D11098007900F044000028CF
:10267000DED01098007900F0040000287FD00BA86D
:102680000090109840880990109800880AAB089034
:102690000146099A0E98FFF7EBFC01E0BDD8FFFF59
:1026A0000C90FE490C98884202D100200C90EDE27B
:1026B00000BF0C98002801DA0C98EDE600BFBDF8C9
:1026C000281011988142F2D109ABDDE910210E9852
:1026D000FFF72AFD0C9000BF0C98002801DA0C9837
:1026E000DAE600BFBDF82C000090109840880890F2
:1026F000109800880790BDF824300146089A0E987B
:10270000FFF749FD0C90E54931390C9888422DDCE2
:10271000C91E0C98884229DDBDF824100E9804F0DB
:102720003AFC0C9000BF0C98002802DA0C98B3E633
:102730002BE100BF10980088014608900E98FFF723
:102740003AFE0C9001211698016000BF0E98C06EF1
:1027500058B11098008808900E98C06E002307901A
:1027600006211846DDE90742A04700BF00BF0C98CC
:10277000002802DA0C988FE601E000BF86E209A883
:1027800000901098408807900F9840F40040002374
:1027900006900146079A0E9804F088F80C90BF49FD
:1027A0000C98884202D100200C90099000BF0C9830
:1027B000002801DA0C986FE600BF08A80090109876
:1027C000408807901098008840F40040002306904D
:1027D0000146079A0E9804F069F80C90AF490C98DE
:1027E000884202D100200C90089000BF0C9800286D
:1027F00001DA0C9850E600BFBDF8200018B1BDF812
:102800002400002879D107A800900F9820F40040F8
:1028100000231A46014602900E9804F047F80C90E7
:102820009E490C98884202D100200C90099000BF6C
:102830000C98002801DA0C982EE600BF06A800903C
:102840001098008820F4004000231A4601460290A8
:102850000E9804F02BF80C9090490C98884202D105
:1028600000200C90089000BF0C98002801DA0C980A
:1028700012E600BFF8208DF8140010984088ADF8DB
:102880001200BDF8240040B1BDF81C0028B1BDF80D
:10289000180010B1BDF8200040B1BDF8240068BB9D
:1028A000BDF8180050B3BDF8200038BB1098008860
:1028B00040F40040ADF8100003AB04AA11990E9843
:1028C000FFF732FC0C9000BF0E98C06E70B11098EC
:1028D000408802901098008801900E98C06E009079
:1028E00003210020DDE90042029BA04700BF00BF9A
:1028F0000C98002803DA0C98CEE545E004E000BF10
:102900000121169801603EE0BDF8200040B1BDF8FD
:10291000180028B1BDF81C0010B1BDF8240040B16A
:10292000BDF8200078BBBDF81C0060B3BDF82400E2
:1029300048BB0F9840F40040ADF8100000BF0E985F
:10294000C06E70B110984088029010980088019075
:102950000E98C06E009003210020DDE90042029B2A
:10296000A04700BF03AB04AA11990E98FFF7DCFB48
:102970000C9000BF0C98002801DA0C988CE500BF81
:1029800001211698016000BF80E10F9800F400401B
:1029900020B11098007900F0040050B90F9800F4AD
:1029A000004000287CD11098007900F00400002835
:1029B000F8D109A800901098408807900F9820F44B
:1029C000004006900146119B079A0E9803F06EFF97
:1029D0000C9032490C98884202D100200C9009904A
:1029E00000BF0C98002801DA0C9855E500BF08A834
:1029F00000901098408807900F9840F4004006908F
:102A00000146119B079A0E9803F050FF0C90234942
:102A10000C98884202D100200C90089000BF0C98BE
:102A2000002801DA0C9837E500BF01200D90BDF8B1
:102A3000240018B1BDF82000002862D1BDF82400A0
:102A400078B3BDF8200060BB00BF0E98C06E58B1CF
:102A50001098408804900E98C06E039002210020C8
:102A6000DDE903430F9AA04700BFF8208DF81C0052
:102A70000F9840F40040ADF8180010984088ADF869
:102A80001A0005A8012100220092CDE9012103903E
:102A9000BDF81800134606AA014603E0EED8FFFF72
:102AA00091E02FE004900E9804F07EF90C9000BFA6
:102AB0000C98002801DA0C98EEE400BF0E98C0696B
:102AC000801F00900E98C2690169119800FB0210E6
:102AD000801D04900E980169C069BDF8142002FBA6
:102AE0000010801D039002460021049B0E9803F005
:102AF000C9FB0C9000BF0C98002801DA0C98CBE4BD
:102B000000BF5FE0BDF82400B0BBBDF8200098B363
:102B100000BF0E98C06E58B11098408804900E986F
:102B2000C06E039003210020DDE903430F9AA04704
:102B300000BFFC208DF81C000F9820F40040ADF879
:102B4000180010984088ADF81A0005AA012000214D
:102B50000091CDE902020191BDF818000B4606AACA
:102B6000014604900E9804F01FF90C9000BF0C98D9
:102B7000002802DA0C988FE424E000BF0E98C069A8
:102B8000801F00900E98C2690169119800FB021025
:102B9000801D04900E980169C069BDF8142002FBE5
:102BA0000010801D039002460021049B0E9803F044
:102BB00069FB0C9000BF0C98002801DA0C986BE4BC
:102BC00000BF00BF62E01098007900F0800010B9EB
:102BD00001200D905AE01098007900F0020028B30F
:102BE0000121169801600BA80090109840880AAB4C
:102BF00002460990DDE90E01FFF73AFA0C90FD4913
:102C00000C98884204D100200C9001200D903DE0EA
:102C100000BF0C98002801DA0C983DE400BFBDF815
:102C200028101198814202D001200D902EE000BFA3
:102C30000E98C06E70B11098408808901098008867
:102C400007900E98C06E069003210020DDE9064231
:102C5000089BA04700BFFF2009909DF8240020F0AA
:102C60000200099009A80121CDE900100E98C2695F
:102C70000169119800FB0210001D03460022072184
:102C800008900E98FFF7E8F80C9000BF0D98C8B1B7
:102C900000BF0E98C06E40B10E98C06E0023099020
:102CA00005211846099C119AA04700BF11990E985A
:102CB00004F071F90C9000BF0C98002801DA0C9810
:102CC00027E400BF0C9824E42DE9F04F87B00446B8
:102CD000894615461F46DDF840B00026D4E90601B6
:102CE000B0FBF1F04000B0FBF1F0012801D201206F
:102CF00006E0D4E90601B0FBF1F04000B0FBF1F0D2
:102D00003844D4E90612B1FBF2F105FB01001FFAC9
:102D100080F800BFE06E50B12802216AB0FBF1FAE2
:102D20000023524619461846D4F86CC0E04700BF4D
:102D300005A80621CDE90010E169206908FB01031F
:102D4000002215212046FEF7E9FF064600BF002EAF
:102D500003DA304607B0BDE8F08F00BF00200490D2
:102D600004A8434605AA4946CDE9005702902046EB
:102D7000FFF754FB064600BF002E01DA3046E9E7B4
:102D800000BF3EB9049810B19A484538E2E7994827
:102D90004438DFE73046DDE7F0B587B004460F463C
:102DA000002500BFE06E28B100231A4619461846D8
:102DB000E66EB04700BF002002900390049005909B
:102DC0008D4800210B460A46CDE90010204603F04D
:102DD00092FA054687484638854200D100254DB114
:102DE00000BFE06E28B100232A4601211846E66E96
:102DF000B04700BF00BFE06E30B100234FF48072D7
:102E000019461846E66EB04700BF284607B0F0BD29
:102E100011B59BB004201A901B98808BC000C0F3A2
:102E20008F001990002018901790F7E3002016905B
:102E30001B98C06914901B98806B1390149906F02E
:102E40005AFB002015902DE300BF1B98C06E40B3C5
:102E50001B98D0E90610B1FBF0F01B99096A4843B2
:102E600017990902B1FBF0F31B98D0E90610B1FBEA
:102E7000F0F11B98006A4143199A159850430002DB
:102E8000B0FBF1F11B98006AB1FBF0F0184413900D
:102E90001B98C06E0023129019460220DDE91242F1
:102EA000A04700BF1B98D0E90610B1FBF0F041002D
:102EB0001B98C069B1FBF0F0012801D2012009E0A4
:102EC0001B98D0E90610B1FBF0F041001B98C069D7
:102ED000B1FBF0F01B99D1E90621B2FBF1F2159993
:102EE00002FB010080B21490C9E212A80621CDE9CC
:102EF00000101B98C2690169149800FB0210034678
:102F0000002215210E901B98FEF708FF189000BFB5
:102F10001898002802DA18981CB010BD00BF179945
:102F20001498884207DB1999179801441498814234
:102F300001DD012000E00020119017991498401A3B
:102F4000400810901498C007400F0F901198A8B136
:102F50009DF84C0000F0800080B19DF84C0000F01E
:102F6000010058B91B98816B1098095C01220F98D9
:102F7000824011431B98826B109811549DF84C00AD
:102F800000F08000002878D09DF84C0000F0400050
:102F90000028F8D09DF84C0000F0050000286CD106
:102FA000119860B11B98816B1098095C0F98801C78
:102FB0000122824011431B98826B109811541B9878
:102FC000406B1B99C969CDE900101B98C269016962
:102FD000149800FB021003460022152109901B984B
:102FE000FEF79CFE189000BF1898002806DA189883
:102FF00092E70000EED8FFFFC92C000800BF1B9825
:10300000406B0D90BDF84A0058B91B98C069303824
:1030100040080C9000200A901B98406B30300E90B6
:1030200017E01B98C069083840080C901B98C069CD
:1030300008384008BDF84A10491E48431B99C96921
:10304000303900EB510080B20A901B98406B083079
:103050000E9000200B9004E20B990E9830F81100AE
:10306000099017990998884208DB19991798014423
:103070000998814202DD012001E0FBE10020089077
:103080004FF6FF710998884207D01B98C168C06944
:10309000B1FBF0F10998814226D3089800287CD032
:1030A0001B98D0E90610B1FBF0F10998B0FBF1F2E2
:1030B00001FB12011B98D0E90620B2FBF0F04200A0
:1030C0001B98C069B2FBF0F0012801D2012009E091
:1030D0001B98D0E90620B2FBF0F042001B98C069B3
:1030E000B2FBF0F0814258D207A80090DDE90A0156
:1030F000084480B206900D98008820F40040002318
:1031000005900146069A1B9803F0D0FB1890FE49E3
:103110001898884202D100201890079000BF189894
:10312000002801DA1898F7E600BFBDF81C0038BB8C
:10313000FC208DF818000D98008820F40040ADF8B0
:103140001400DDE90A01084480B2ADF8160007A8B2
:10315000012100220092CDE901210390BDF8140065
:10316000134605AA014604901B9803F01DFE189013
:1031700000BF1898002801DA1898CDE600BF00BFFC
:1031800014980090DDE90A01084480B206900D9879
:10319000008840F40040059000E045E0BDF81C3098
:1031A0000146069A1B98FEF7F6FF1890D64931396A
:1031B000189888421ADCC91E1898884216DD00BF8C
:1031C0001B98C06E58B10D98008806901B98C06E71
:1031D0000023059006210220DDE90542A04700BF3B
:1031E00014991B9803F0D7FE189013E000BF1B98AA
:1031F000C06E70B10D98408806900D9800880590BB
:103200001B98C06E049002210846DDE90442069B2B
:10321000A04700BF00BF1898002801DA18987BE685
:1032200000BF0120169019E108980028FBD006A8DD
:103230000621CDE900101B98C2690169099800FBBD
:10324000021003460022152105901B98FEF766FD2B
:10325000189000BF1898002801DA18985CE600BFA3
:10326000BDF81800BDF8481021F4004188420CD187
:10327000BDF81A20DDE90A010844824205D19DF813
:103280001C0000F08500842879D005A80090DDE9B5
:103290000A01084480B20490BDF8480020F40040C0
:1032A00003900146099B049A1B9803F0FFFA1890BB
:1032B00095491898884202D100201890059000BFC7
:1032C0001898002801DA189826E600BFBDF8140007
:1032D00000BB00BF1B98C06E58B1BDF848000490F9
:1032E0001B98C06E0023039006210220DDE90342F3
:1032F000A04700BFBDF84800014604901B98FFF7A7
:103300005AF8189000BF1898002801DA189803E6B8
:1033100000BFADE014980090DDE90A01084480B2D6
:103320000490BDF848000390BDF814300146049A9B
:103330001B98FEF730FF189073493139189888426E
:103340001EDCC91E189888421ADD00BF1B98C06E8B
:1033500058B1BDF8480004901B98C06E002303903C
:1033600006210220DDE90342A04700BFBDF8480066
:10337000014604901B98FFF71EF8189014E01DE01A
:1033800000BF1B98C06E70B1BDF84A000490BDF834
:10339000480003901B98C06E029002210846DDE9A8
:1033A0000242049BA04700BF00BF1898002801DA22
:1033B0001898B1E500BF012016904EE017990998C2
:1033C000401A400805900998C007400F04901B98C8
:1033D000816B0598095C0498401C012282401140D1
:1033E00069B300BF1B98C06E58B1BDF84800039088
:1033F0001B98C06E0023029006210220DDE90242E4
:10340000A04700BFBDF84800014603901B98FEF797
:10341000D2FF189000BF1898002801DA18987BE5B1
:1034200000BF14991B9803F0B6FD189000BF1898C0
:10343000002801DA18986FE500BF012016901B984C
:10344000816B0598095C0498401C0122824011435D
:103450001B98826B0598115400BF00BF0B98401C4D
:103460000B90169820B9DDE90B018842FFF6F4AD08
:1034700000BF00BF1498401C80B2149000BF169883
:1034800058B91B98D0E90610B1FBF0F11598401C13
:103490004143149881423FF628AD1598401C80B2F4
:1034A000159000BF169828B91B98016A159881429B
:1034B0003FF6CAAC1698002872D112904AE100205B
:1034C00011903EE11B98816B1298085C119989005C
:1034D000084100F0070010901799129801EB400185
:1034E0001198084480B20F90109801287ED10020D6
:1034F0000E900D900BA80621CDE900101B98C26913
:1035000001690F9802E00000EED8FFFF00FB0210F7
:103510000346002215210A901B98FEF7FFFB189026
:1035200000BF1898002801DA1898F5E400BF14A825
:103530000090BDF82E000A90BDF82C0013AB099046
:1035400001460A9A1B98FEF793FD1890189840BB05
:10355000BDF84C004FF6FF7188422FD01B98C16810
:10356000C069B1FBF0F0BDF84C10884226D31B981F
:10357000D0E90610B1FBF0F0BDF84C10B1FBF0F251
:1035800000FB12111B98D0E90620B2FBF0F04200BC
:103590001B98C069B2FBF0F0012803D201200BE0B8
:1035A000E1E044E01B98D0E90620B2FBF0F04200D5
:1035B0001B98C069B2FBF0F0814202D201200E904C
:1035C0003DE009A80621CDE900101B980169C069FA
:1035D000BDF84C2002FB0010034600221521089084
:1035E0001B98FEF79BFB189000BF00E0A4E0189822
:1035F000002801DA18988FE400BFBDF82C0020F4F1
:103600000040BDF82410884209D19DF8280000F040
:103610008700842803D101200D9007E0ABE0BDF8BE
:103620004C100F98814201D001200E9007E0F7491D
:103630001898884203D101200D90002018900E9810
:10364000A0B3BDF850000090BDF82E000A90BDF860
:103650002C00099001460F9B0A9A1B98FEF79BFDD0
:103660001890EA493139189888422ADCC91E1898FE
:10367000884226DD00BF1B98C06E58B1BDF82C00F3
:103680000A901B98C06E0023099006210220DDE9F4
:103690000942A04700BF0F991B9803F07CFC1890CB
:1036A00000BF1898002802DA189835E427E000BF18
:1036B000BDF82C0001460A901B98FEF77CFE18907E
:1036C00013E000BF1B98C06E70B1BDF82E000A90C9
:1036D000BDF82C0009901B98C06E08900221084686
:1036E000DDE908420A9BA04700BF00BF18980028E8
:1036F00001DA189810E400BF012016901DE00D9823
:1037000090B100BF1B98C06E40B11B98C06E0023E3
:103710000A90052102200A9C0F9AA04700BF0F992A
:103720001B9803F038FC189000BF1898002801DAA5
:1037300018985DE400BF00BF00BF1198401CC0B2E4
:103740001190169818B911980228FFF4BBAE129880
:10375000401C1290169828B91B98C1691298814292
:103760003FF6ADAE00BF169820B9199917980844D6
:1037700080B2179000BF1B98D0E90610B1FBF0F0A3
:103780001B99096A4843179988423FF64FAB18982E
:103790002EE470B5044600BFE06E28B100231A463F
:1037A00019460220E66EB04700BF2046FFF730FB07
:1037B00005464DB100BFE06E28B100232A46012125
:1037C0000220E66EB04700BF00BFE06E30B10023BC
:1037D0004FF4807219460220E66EB04700BF2846BB
:1037E00070BD10B502460B46946B23F400430021D4
:1037F00008E034F8110020F40040984201D1084656
:1038000010BD491CD069B1EB500FF2D34FF0FF301F
:10381000F6E72DE9FF4F87B004460E4692467B48F7
:10382000443806900027159DD4F8388000BFE06E1C
:1038300058B14FEA0A20216AB0FBF1F900234A4649
:1038400019460120D4F86CC0E04700BF4FF6FF7066
:1038500086427BD0002EFCD006F400400028F8D031
:10386000D4E90601B0FBF1F04000B0FBF1F0012813
:1038700001D2012006E0D4E90601B0FBF1F04000DE
:10388000B0FBF1F00A990844D4E90612B1FBF2F159
:103890000AFB01001FFA80F904A80621CDE90010F7
:1038A000E169206909FB0103002215212046FEF78A
:1038B00035FA074600BF002F03DA38460BB0BDE8E3
:1038C000F08F00BFBDF81200E8B99DF8140000F0B9
:1038D000C600802817D100BFE06E30B133464A469B
:1038E00005210120D4F86CC0E04700BF49462046BE
:1038F00003F051FB074600BF002F01DA3846DDE731
:1039000000BF0698DAE79DF8140000F0C600C02852
:1039100001D10698D2E7BDF81200C0B93146204661
:10392000FFF75FFF83460BF1010070B926F40040FA
:10393000296828F811002868401C28602868E16977
:10394000B0EB510F01D3002028605BE05BE0314613
:103950002046FFF746FF8346002003900BF101004D
:1039600078BB02A846F4004100231A460090204686
:1039700002F09CFF07462548453806902FB926F4EB
:103980000040296828F8110010E02048874207D13C
:103990000120039046F40040296828F8110005E052
:1039A00000BF002F01DA384688E700BF2868401CB6
:1039B00028602868E169B0EB510F01D3002028602E
:1039C00007E0FFE738F81B0000F4004008B10120D1
:1039D00003900398A8B100BFE06E30B133464A4669
:1039E00004210120D4F86CC0E04700BF49462046BE
:1039F00003F0D1FA074600BF002F01DA38465DE731
:103A000000BF00BF00BF069858E70000EED8FFFFD8
:103A100070B588B004460025E169A06B05F06BFD28
:103A20000020079000BFE06E28B100231A46194617
:103A30000120E66EB04700BF002007AACDE90202D0
:103A400004900590134800210B460A46CDE900106A
:103A5000204602F050FC05460F48854200D1002563
:103A60004DB100BFE06E28B100232A46012108466F
:103A7000E66EB04700BF00BFE06E30B100234FF4E8
:103A8000807219460120E66EB04700BF284608B094
:103A900070BD000013380008A8D8FFFF2DE9F041E1
:103AA00004460E463146204602F046FD074600BF5A
:103AB000002F02DA3846BDE8F08100BF00250CE097
:103AC000D4E90601B0FBF1F006FB00501FFA80F8C4
:103AD00041462046FEF713F96D1CD4E90601B0FB00
:103AE000F1F0A842ECD83846E5E72DE9F04F87B071
:103AF000044689460025206A06900020059004901F
:103B00000026606B0390A06D401CA065E0694FEA41
:103B1000500BC5E04FF0000A0027B84673E008FBE1
:103B20000BF00290616BE069CDE90001E169206969
:103B300008FB010104980B18002214212046FEF70F
:103B4000EDF805463EE00299721A039931F8120029
:103B500020B90AF101011FFA81FA31E04FF6FF7135
:103B6000884218D1791C8FB24F4529DDD4E906125D
:103B7000B1FBF2F14900B1FBF2F1012901D20121BF
:103B800006E0D4E90612B1FBF2F14900B1FBF2F113
:103B90008846012533E0D4E90612B1FBF2F1490071
:103BA000B1FBF2F1012901D2012106E0D4E90612AC
:103BB000B1FBF2F14900B1FBF2F1884601251EE0AC
:103BC000761C00BFDDB90298301A584517DAD4E9DF
:103BD0000601B0FBF1F1E269B0FBF2F04000B0FB8E
:103BE000F2F0012801D2012006E0D4E90602B0FB80
:103BF000F2F04000B0FBF2F0081AB042A3DC00BFC4
:103C000008F1010800BFA5B9D4E90601B0FBF1F045
:103C10004000B0FBF1F0012801D2012006E0D4E918
:103C20000601B0FBF1F04000B0FBF1F040453FF77A
:103C300076AF012D00D1002545BBD4E90601B0FBCC
:103C4000F1F1E269B0FBF2F04000B0FBF2F00128C4
:103C500001D2012006E0D4E90602B0FBF2F04000F8
:103C6000B0FBF2F0081A0AEB070188420ED14F456B
:103C70000CDC206DA0EB0A00206520460599FFF7BB
:103C80000DFF0546284607B0BDE8F08F00260598D1
:103C9000401C80B20590A16904980844049000BFBC
:103CA0002DB90698411E069100287FF433AF05B95F
:103CB000F74D2846E7E72DE9FF5F044688460027D1
:103CC0000025E0694FEA5009606B03900026AA4680
:103CD0000020029044E005FB09FB616BE069CDE93F
:103CE0000001E169206905FB0100A16908FB0103EE
:103CF000002214212046FEF711F8074611E0A6EB3A
:103D00000B02039931F812004FF6FF71884206D07A
:103D100010B90AF1010A02E00299491C0291761CCD
:103D200000BFDFB9A6EB0B00484517DAD4E906015E
:103D3000B0FBF1F1E269B0FBF2F04000B0FBF2F051
:103D4000012801D2012006E0D4E90602B0FBF2F01E
:103D50004000B0FBF2F0081AB042D0DC6D1C00BF8E
:103D60009FB9D4E90601B0FBF1F04000B0FBF1F0DF
:103D7000012801D2012006E0D4E90601B0FBF1F0F0
:103D80004000B0FBF1F0A842A5DCE16C0298081AF3
:103D9000E064206DA0EB0A002065384604B0BDE861
:103DA000F09F2DE9F04F91B0044688460025E06968
:103DB00040081090A946606B0F900027A06B0990F7
:103DC000D4F838A014210AA805F095FB00208DF83E
:103DD0002800A08C404509D108F10100216AB0FB00
:103DE000F1F201FB1200A0840020A062BFE20020DB
:103DF0008DF83800109899FBF0FB0120089090E1B5
:103E000010980BFB00F00790616BE069CDE90001B1
:103E1000E16920690BFB0100A16908FB0103002295
:103E200014212046FDF77AFF054655E10798A9EBD6
:103E300000010F9830F81160D4E90601B0FBF1F0F1
:103E40004000B0FBF1F0012801D2012006E0D4E9E6
:103E50000601B0FBF1F04000B0FBF1F04844D4E9BA
:103E60000612B1FBF2F108FB010087B29DF82800B1
:103E700020B1012814D0022872D1AFE07EB14FF6F4
:103E8000FF7086420BD006F4004040B901208DF847
:103E90003800ADF82A60ADF830700020089017E1C6
:103EA000BDF82A00B04278D105A80621CDE900105E
:103EB000E169206907FB0103002215212046FDF777
:103EC0002DFF054600BF002D03DA284611B0BDE8DE
:103ED000F08F00BFBDF81610E0693038B1EB500F1D
:103EE00001D200200BE0BDF81610E0693038A1EBDC
:103EF0005001E06908384008B1FBF0F0401CBDF803
:103F00002C10884268D19DF8180000F0800040B362
:103F100004A805A933460022CDE9001702901146F6
:103F2000204603F096F8054600BF002D01DA28462A
:103F3000CCE700BF616BE069CDE90001E169206970
:103F40000BFB0100A16908FB01030022142120469C
:103F5000FDF7E4FE054600BF002D03DA2846B5E76D
:103F6000B3E000E00DE03946204603F014F80546C2
:103F700000BF002D01DA2846A8E700BF4FF6FF700A
:103F80000490BDF82C0048B9BDF81010BDF81620FB
:103F90000998303020F812101DE01EE0BDF8161010
:103FA000E0693038B1EB500F02D2BDF816000CE0DA
:103FB000BDF81610E0693038A1EB5001E06908380F
:103FC0004008B1FBF0F200FB12100AF10801BDF845
:103FD000102021F8102000BF00BF79E0002E73D020
:103FE0004FF6FF7086426FD006F4004000286BD079
:103FF00005A80621CDE90010E169206907FB01034E
:10400000002215212046FDF789FE054600BF002D40
:1040100001DA28465AE700BF9DF8180000F080003A
:10402000A8B304A805A933460022CDE900170290E1
:104030001146204603F00DF8054600BF002D01DAB9
:10404000284643E700BF0021BDF81020BDF8160048
:104050003346CDE901210090032205A9204603F053
:10406000CDF8616BE069CDE90001E16920690BFBE6
:104070000100A16908FB0103002214212046FDF77D
:104080004DFE054600BF002D04DA28461EE702E07B
:10409000D3D8FFFF10E03946204602F07CFF0546EA
:1040A00055B90021BDF8160033460222CDE9017151
:1040B0000090204603F0A2F800BF002D02DA284647
:1040C00004E701E000BF00BF02E00020089000BF4D
:1040D00000BF09F1010900BF0898F8B1F5B90798C8
:1040E000A9EB00011098814218DAD4E90601B0FB6F
:1040F000F1F1E269B0FBF2F04000B0FBF2F0012810
:1041000001D2012006E0D4E90602B0FBF2F0400043
:10411000B0FBF2F0081A48453FF788AE0BF1010BEF
:1041200000BF0898A8B1A5B9D4E90601B0FBF1F029
:104130004000B0FBF1F0012801D2012006E0D4E9F3
:104140000601B0FBF1F04000B0FBF1F058453FF73D
:1041500057AE05B111E19DF8280020B1012876D0B5
:10416000022875D1FAE09DF83800002871D0CDF80A
:1041700034904FF0000901208DF8280006A8062190
:10418000CDE90010E169206907FB01030022152138
:104190002046FDF7C3FD054600BF002D01DA284685
:1041A00094E600BFBDF81A10E0693038B1EB500F4B
:1041B00001D200200BE0BDF81A10E0693038A1EB05
:1041C0005001E06908384008B1FBF0F0401C80B2B3
:1041D000ADF82C0005A80090BDF82C20BDF82A00F1
:1041E00040F400410023204602F060FB0546F648FB
:1041F000854211D1BDF83010204602F0CCFE0546B4
:1042000000BF002D01DA284660E600BFDDF83490DB
:1042100000208DF82800A8E000BF002D01DA284614
:1042200054E600BFA16BE069CDE90001BDF81420A0
:10423000E169206902FB0103002215212046FDF7F8
:104240006DFD054600BF002D04DA28463EE63EE03F
:1042500088E036E000BF9AF8040000F0010010B1D9
:10426000D9480A3832E69AF8040000F0800010B904
:10427000D548801E2AE69AF8040000F0020010B12A
:10428000D148C01E22E69AF8040000F0040010B1E4
:10429000CD48001F1AE6BDF82A004FF4004010B9BF
:1042A000C948001F12E6BAF80200BDF82C10884277
:1042B00002D0C5480B3809E6BDF81400ADF82E0051
:1042C00004E002208DF828004FF000094DE00020A6
:1042D0008DF82800DDF83490BDF82C00B8B907A897
:1042E000002101910291CDE90310A06B0090BDF86F
:1042F0002E30BDF82A0040F40042204603F009F9B0
:10430000054600BF002D01DA2846DFE525E007A9B4
:10431000BDF82E000022CDE900200291BDF82A0050
:1043200040F4004300212046A26B02F092FE0546B5
:1043300000BF002D01DA2846C8E500BF0021BDF806
:104340001C20BAF80200CDE901210090BDF82A3006
:1043500000222046A16B02F051FF06E003208DF8F9
:10436000280002E04FF0000900BF00BF00BF25B9E0
:104370009DF8280003287FF43AAD00BF2846A5E544
:104380002DE9FF4F8FB0044691460026206A0E901B
:10439000B24600200D90606B0C90B346E06908387F
:1043A0000621B0FBF1F0216A884201D9206A04E0BD
:1043B000E06908380621B0FBF1F00B900020C9F845
:1043C0000000FF22E169A06B05F08EF8A76BA16BDE
:1043D0000B9801EB400808F1030020F00308109847
:1043E0000760E06940080A9007E100200990089002
:1043F000079050E00A99079800FB01F5616BE069AE
:10440000CDE90001E2692169079800FB02110D98CE
:104410000B18002214212046FDF780FC064617E009
:10442000ABEB05020C9931F812004FF6FF71884290
:1044300001D101262AE020B90999491C89B20991C4
:1044400003E00899491C89B208910BF1010B00BFE8
:10445000E6B9ABEB05010A98814217DAD4E9060107
:10446000B0FBF1F1E269B0FBF2F04000B0FBF2F01A
:10447000012801D2012006E0D4E90602B0FBF2F0E7
:104480004000B0FBF2F0081A5845C9DC00BF07989D
:10449000401C079000BFA6B9D4E90601B0FBF1F0BB
:1044A0004000B0FBF1F0012801D2012006E0D4E980
:1044B0000601B0FBF1F04000B0FBF1F00799884233
:1044C00098DC012E00D10026002E7CD1D4E9060113
:1044D000B0FBF1F04000B0FBF1F0012801D2012067
:1044E00006E0D4E90601B0FBF1F04000B0FBF1F0CA
:1044F000A26921690AFB0211E26900FB0210801E19
:1045000006A903900220CDE90001002215212046D2
:10451000039BFDF703FC064600BF002E03DA30467E
:1045200013B0BDE8F08F00BFB4F85600BDF8181006
:10453000884207DDB4F85610BDF81800081A80B29A
:10454000059009E0B4F85600BDF81810091A4FF6A6
:10455000FF70401A80B20590099800EB800108981E
:1045600040420144129808B1002200E0322205982E
:1045700000FB0210049000252AE037F815004FF6E2
:10458000FF71884205D127F815A0049848F8250046
:1045900021E058F825100498814217DA0B99881EFB
:1045A00009E037F81020411C27F8112058F8202086
:1045B00048F82120401EA842F3DA27F815A00499F4
:1045C00048F8251007E00DE0EED8FFFF00BF6D1C96
:1045D0000B988542D1DB00BFD9F80000401CC9F818
:1045E000000000BF4FF0000B0AF101001FFA80FA33
:1045F000A1690D9808440D9000BF2EB90E98411E78
:104600000E9100287FF4F1AE304689E72DE9FC5F7A
:1046100004460E46D4E90601B0FBF1F1E269B0FBB5
:10462000F2F04000B0FBF2F0012801D2012006E0D8
:10463000D4E90602B0FBF2F04000B0FBF2F0081A39
:10464000216A891E4843E16C401A216D451A4FF0DA
:10465000000AA06C032807D9E069801F6843B042B4
:1046600002DD0020BDE8FC9FE069801F3044401E51
:10467000E169891FB0FBF1F8206D2844404501DA5B
:104680005048EFE700BFA946002D01DC012000E003
:10469000002003466A4601A92046FFF771FE07463F
:1046A00000BF002F01DA3846DCE700BF009828B9C8
:1046B000A84501DA0020D5E74248D3E7A06D401CA9
:1046C000A0650198B0F800B0012084F85400594664
:1046D0002046FFF766FB0746002084F8540000BF21
:1046E000002F01DA3846BDE700BF59462046FFF7E4
:1046F000E2FA074600BF002F01DA3846B2E700BFF2
:1047000059462046FFF7CAF9074600BF002F01DAD5
:104710003846A7E700BFD4E90601B0FBF1F1E26932
:10472000B0FBF2F04000B0FBF2F0012801D2012012
:1047300006E0D4E90602B0FBF2F04000B0FBF2F074
:10474000081A216A891E4843E16C401A216D451AF6
:10475000B9F1000F02DCA94500D10CE00AF101001B
:104760008246052807DAA06C02288CD9E069801FF0
:104770006843B04287DB00BFD4E90601B0FBF1F12A
:10478000E269B0FBF2F04000B0FBF2F0012801D288
:10479000012006E0D4E90602B0FBF2F04000B0FBD5
:1047A000F2F0081A216A891E4843E16C401A216D13
:1047B000451AE069801F6843B04200DA014F38466D
:1047C00050E70000EFD8FFFF014691F8740008B1F0
:1047D000012070470020FCE770B50446F949E06FFE
:1047E000884202D0F848606470BD94F8740020B12B
:1047F000F548801E60648013F6E7002611E0002073
:10480000A4F856003146204601F096FE05460DB14B
:10481000ED4DED1E002D02DA65642846E4E7701CBC
:1048200086B2206AB042EAD80020DDE72DE9FF4FCA
:1048300081B0044693461F46DDE90F98A06F0090B3
:104840008021204604F057FE00BF20222046029916
:1048500004F038FE00BF0098A067A169E068B0FBD3
:10486000F1F02062C4F838B0E0695844606338461B
:104870000E9904F040FE0425F8B2691E00EA010614
:104880002EB1A81B0744A91B0E98401A0E90E7638F
:1048900030210E98B0FBF1F0206409F0FF00691E92
:1048A00000EA01063EB14846A91B08448146A91BFF
:1048B000A8EB010800BF681E00EA080020B1681ECE
:1048C00000EA0800A8EB0008C4F85C90E069B8EBC7
:1048D000401F02D9E069400100E0404620662046C2
:1048E000FDF776FBB748E067204601F093FE82466D
:1048F000BAF1000F05DAC4F844A0504605B0BDE88F
:10490000F08F1198E066012084F874000020F5E72C
:104910002DE9F05F0C4617461D46DDF828804FF064
:104920000009C246A068401C08B3A068A8421ED96E
:10493000A068401B404502DAA068401B00E04046EA
:10494000064633463A462946204603F05AFB81463E
:1049500000BFB9F1000F02DA4846BDE8F09F00BF82
:10496000AAEB060ABB46B3445F46354400BFBAF122
:10497000000F0DDD53463A462946204602F00EFF51
:10498000814600BFB9F1000F01DA4846E5E700BFF4
:104990004046E2E72DE9FC4104460E46002501AA07
:1049A0003146204604F04AFD0546002D03DA6564D1
:1049B0002846BDE8FC810198007F00F0200050BB34
:1049C0000198006A28B920460199FDF7A4FA0199D7
:1049D00008620198006AF0B10198006A008A0090AC
:1049E000E06D01690198006A4778E069143007FBBF
:1049F000001000F114020198006AC3682046019972
:104A0000FFF786FF0546002D00DA65640198016A0C
:104A10002046FDF7BBFA2846CBE72DE9F0410446D6
:104A20006849E06F884202D194F8740008B9BDE883
:104A3000F081E76B002510E005EB450007EB001661
:104A4000B08848B1B6F904102046FFF7A3FFB6F9C5
:104A50000410204604F0D6FC6D1C206CA842EBD854
:104A6000002084F8740000BFE1E70146486C7047FD
:104A7000002141647047FEB504460E461746514971
:104A8000E06F884202D050486064FEBD94F8740024
:104A900018B94D4818306064F7E7304604F042FD1D
:104AA0001F2803D948480C386064EEE7324602A953
:104AB000204604F007FB0546002D02DA656428460F
:104AC000E3E70020012103463246CDE90010BDF89E
:104AD0000810204602F048FC0546002D02DA656405
:104AE0002846D2E70020D0E72DE9F04186B0054600
:104AF0000F46164698463349E86F884204D032483C
:104B0000686406B0BDE8F08195F8740018B92E48C5
:104B100018306864F5E7384604F004FD1F2803D90F
:104B200029480C386864ECE73A4605A9284604F0A1
:104B3000DAFB0446002C02DA6C6420B2E1E704AA36
:104B40003946284603F06EFD044606F0040060B9BD
:104B5000002C05DA0598B0F90410284604F052FC40
:104B6000002C02DA6C6420B2CBE784B906F0440072
:104B700044280CD1144CA41F0598B0F90410284601
:104B800004F040FC002C02DA6C6420B2B9E706F0B5
:104B90000400A0B30C481630844234D1002203A98B
:104BA000284604F08FFA0446002C05DA0598B0F97F
:104BB0000410284604F026FC002C07DA6C6420B2AE
:104BC0009FE7000015030920D8D8FFFF04A80121A2
:104BD00000233A46CDE90010BDF80C10284602F03B
:104BE000C3FB0446002C05DA0598B0F904102846EA
:104BF00004F008FC002C03DA6C6420B281E702E0C8
:104C000026F002060CE0002C05DA0598B0F9041035
:104C1000284604F0F7FB002C02DA6C6420B270E73F
:104C20003346CDF80080BDF810102846059A02F0F2
:104C300000FD0446002C05DA0598B0F9041028465A
:104C400004F0E0FB002C02DA6C6420B259E706F0B5
:104C5000020090B100221146059803F02BFD044696
:104C6000002C05DA0598B0F90410284604F0CAFBB8
:104C7000002C02DA6C6420B243E7002005998861B9
:104C80000598B0F904003CE72DE9FC4105460F46C4
:104C900016469846FE49E86F884203D0FD4868648E
:104CA000BDE8FC8195F8740018B9FA4818306864BA
:104CB000F6E7002201A9284604F015FB0446002C63
:104CC00002DA6C6420B2EBE7CDF80080398D334610
:104CD0002846019A02F0ADFC0446002C05DA019842
:104CE000B0F90410284604F08DFB002C02DA6C6445
:104CF00020B2D5E706F0020090B1002211460198DB
:104D000003F0D8FC0446002C05DA0198B0F9041031
:104D1000284604F077FB002C02DA6C6420B2BFE76F
:104D20000020019988610198B0F90400B8E72DE9E5
:104D3000FC4105460F4616469846D549E86F88421D
:104D400003D0D4486864BDE8FC8195F8740018B9B4
:104D5000D04818306864F6E7002201A9284604F01C
:104D6000C2FA0446002C02DA6C6420B2EBE7D5E903
:104D70000601B0FBF1F0B7FBF0F100FB1171D5E9D2
:104D80000602B0FBF2F04000B0FBF2F0012801D2C5
:104D9000012006E0D5E90602B0FBF2F04000B0FBCE
:104DA000F2F081420CD2BB4CE41F0198B0F9041020
:104DB000284604F027FB002C02DA6C6420B2C2E71C
:104DC0003346CDF8008039462846019A02F031FC7E
:104DD0000446B0480C3084420CD0AE4814308442B3
:104DE00008D0401E844205D0401E844202D0C01F1D
:104DF000844201D1A74CE41F002C05DA0198B0F9D8
:104E00000410284604F0FEFA002C02DA6C6420B28A
:104E100099E706F0020090B100221146019803F0D4
:104E200049FC0446002C05DA0198B0F90410284624
:104E300004F0E8FA002C02DA6C6420B283E7002068
:104E4000019988610198B0F904007CE72DE9F843E5
:104E50000546884691461E468D49E86F884203D034
:104E60008C486864BDE8F88395F8740018B98948DF
:104E700018306864F6E700BF6A464146284604F0E9
:104E8000DDFA0446002C02DA6C642046EAE700985A
:104E9000007F00F0080030B97E4CA41C002C02DA20
:104EA0006C642046DEE700988068401C40B9002E04
:104EB00006DD784C1534002C02DA6C642046D1E70C
:104EC00041462846FFF766FD009880693044009906
:104ED0008968884223D30098806800998969471AB5
:104EE000002F03DC6B4815306864BBE700984B4625
:104EF0003A46816903F0D0FE044666481530844284
:104F000006D1009880693844009988613846A9E73D
:104F1000002C02DA6C642046A4E73E460BE00098C1
:104F20004B463246816903F0B7FE0446002C02DA94
:104F30006C64204696E70098806930440099886147
:104F400030468FE72DE9F04105460E461746984654
:104F500043463A4631462846FFF778FF04464D4817
:104F60001530844200D100242046BDE8F0812DE9AF
:104F7000FE4F0446894692461E464549E06F8842E8
:104F800003D044486064BDE8FE8F94F8740018B9FB
:104F9000404818306064F6E700BF02AA4946204640
:104FA00004F04CFA0546002D02DA65642846EAE76B
:104FB0000298007F00F0100030B9364DED1C002D36
:104FC00002DA65642846DEE70298007F00F00100FF
:104FD00048B102988068401C08B9002001E002989E
:104FE000806802998861029887690298006A28B9E6
:104FF00020460299FCF78FFF029908620298007F11
:1050000000F00100E8B102988068401C08B9002750
:1050100001E0029887680298006A90B10298006ADD
:10502000C1680298006A008A0844B84201D2384632
:1050300006E00298006AC1680298006A008A084483
:1050400007460298007F00F0200000287ED1E0692A
:10505000B0427CDD012001900298006AE0B3029822
:10506000006AC068B84210D80298006AC168029805
:10507000006A008A0844B84207D30298006AC068F0
:10508000E1690844B919884227D20298006A03E00E
:1050900015030920D8D8FFFF008A0090E06D016950
:1050A0000298006A90F801C0E06914300CFB00100F
:1050B00000F114020298006AC36820460299FFF7C3
:1050C00027FC05460298016A2046FCF75FFF002D89
:1050D00005DA6564284656E701E000200190019852
:1050E00078B120460299FCF73BFF029908620298CA
:1050F000006A30B10298006AC76000210298006A15
:1051000001820298006AA8B30298006AC068A7EBFF
:105110000008D4F85CB0DBF810100298006A4278FE
:10512000E069143002FB00101430009000BF0099B9
:1051300001EB08003246514604F0C4F900BF029862
:10514000006A008A08EB0601884201E04CE026E094
:1051500003D90298006A008A01E008EB060081B2D8
:105160000298006A0182029880693044029988613D
:10517000304608E7FFE73B46524600962046029934
:10518000FFF7C6FB0546002D02DA65642846FAE6FD
:10519000029880693044029988612846F3E60298B3
:1051A000006A08B30298006A008A0090E06D016905
:1051B0000298006A90F801C0E06914300CFB0010FE
:1051C00000F114020298006AC36820460299FFF7B2
:1051D0009FFB05460298016A2046FCF7D7FE002D8A
:1051E00002DA65642846CEE63B46524600962046E3
:1051F0000299FFF78DFB0546002D02DA656428460B
:10520000C1E6029880693044029988612846BAE66E
:105210002DE9FE4F04468A4615469B46F949E06F44
:10522000884203D0F8486064BDE8FE8F94F87400AB
:1052300018B9F54818306064F6E700BF02AA514675
:10524000204604F0FBF80646002E02DA666430467B
:10525000EAE751462046FFF79DFB02988068401C14
:1052600008B9002001E0029880688046BBF1010F78
:1052700003D0BBF1020F06D103E002988069054418
:1052800001E0454400BF00BF002D03DADE481038BE
:105290006064C9E7454504DD0298C0F81880DA4E1D
:1052A0001536002E02DA66643046BDE7002D01DDBA
:1052B000681E00E00020E169891FB0FBF1F01FFAD1
:1052C00080F9E0693038B9EB500F01D2002009E0D5
:1052D000E0693038A9EB5001E06908384008B1FBBB
:1052E000F0F0401C87B20298008AB84217D001A89B
:1052F00000900298C08840F4004100233A462046BE
:1053000001F0D4FA0646002E02DA666430468BE7D6
:1053100002980782BDF804000299C88100BF029874
:105320008561284680E7FEB505460E46B549E86F1B
:10533000884202D0B4486864FEBD95F8740018B97C
:10534000B14818306864F7E7304604F0EBF81F28DE
:1053500003D9AD480C386864EEE7002202A928465C
:1053600003F0C1FF0446002C02DA6C642046E3E738
:1053700001AA3146284603F055F904462CB102989B
:10538000B0F90410284604F03DF8002C02DA6C64F1
:105390002046D1E7002003460090BDF804102846BF
:1053A000029A02F046F904462CB10298B0F90410B2
:1053B000284604F027F8002C02DA6C642046BBE78C
:1053C00001220021029803F075F904462CB10298DD
:1053D000B0F90410284604F015F8002C02DA6C64C9
:1053E0002046A9E70020A7E7F8B504460E46854900
:1053F000E06F884202D084486064F8BD94F874007D
:1054000018B9814818306064F7E700BF6A46314632
:10541000204604F013F80546002D02DA656428469C
:10542000EBE70098007F00F0100030B9764DED1CDE
:10543000002D02DA65642846DFE70098016A2046FD
:10544000FCF7A4FD01220021009803F033F9054682
:10545000002D02DA65642846CFE70020CDE72DE96C
:10546000F0438FB004460E4691461D4603A83021F6
:10547000CDE90010E169206906FB01034A461621C7
:105480002046FCF74BFC0746002F04DA67643846D9
:105490000FB0BDE8F083D4E90601B0FBF1F0B6FB34
:1054A000F0F02269A16900FB0121D4E90602B0FBFA
:1054B000F2F0B6FBF0F200FB1262D4E90603B0FB97
:1054C000F3F04000B0FBF3F0012801D2012006E028
:1054D000D4E90603B0FBF3F04000B0FBF3F0101A80
:1054E00001EB400802A8022143464A46CDE90010DC
:1054F00014212046FCF712FC0746002F02DA6764ED
:105500003846C5E7BDF8080020F4004028809DF823
:10551000180028720598401C08B9002000E0059882
:1055200068606E8120220DF1190105F10C0003F075
:10553000EDFF3846ACE7F8B504460E46174631494C
:10554000E06F884202D030486064F8BD94F874007F
:1055500018B92D4818306064F7E7304603F0E2FFD1
:105560001F2803D928480C386064EEE76A463146A4
:10557000204603F057F80546002D02DA65642846F8
:10558000E3E73B460022BDF800102046FFF767FF27
:1055900005462846D9E7F8B504460E461746194988
:1055A000E06F884202D018486064F8BD94F8740037
:1055B00018B9154818306064F7E700BF6A463146ED
:1055C000204603F03BFF0546002D02DA65642846BD
:1055D000EBE731462046FFF7DDF9009881893B462D
:1055E00032462046FFF73BFF05462846DDE770B50B
:1055F00004460E460349E06F884207D002486064C3
:1056000070BD000015030920D8D8FFFF94F874007E
:1056100010B9F8486064F3E7002500BF3146204622
:10562000FFF7B8F90546002D02DA65642846E7E77A
:105630002846E5E770B504460E46EF49E06F88421C
:1056400003D0EC481838606470BD94F8740010B949
:10565000E8486064F8E7002500BF31462046FFF7C0
:1056600099F90546002D02DA65642846ECE73146D3
:10567000204603F0C7FE0546002D02DA6564284681
:10568000E2E72846E0E7F0B589B005460F46164642
:10569000D949E86F884204D0D6481838686409B000
:1056A000F0BD95F8740010B9D2486864F7E7304649
:1056B00003F038FF1F2804D8384603F033FF1F28B3
:1056C00003D9CC4824386864E9E708AA3946284653
:1056D00002F0A8FF0446002C02DA6C642046DEE7E4
:1056E00007AA3146284602F09DFF0446C148801EA5
:1056F000844201D1002402E00CB9BE4C173C002CBE
:1057000002DA6C642046CAE7002206A9284603F0A4
:10571000EAFD0446002C02DA6C642046BFE7002054
:1057200003460090BDF820102846069A01F081FF3C
:1057300004462CB10698B0F90410284603F062FE26
:10574000002C02DA6C642046A9E707A80021CDE905
:105750000161CDE90310009106988389C288014652
:10576000284601F0D6FE044624B93246394628467A
:1057700003F07FFE0698B0F90410284603F042FEBD
:10578000002C02DA6C64204689E7204687E710B5D2
:105790000346994CD86FA04204D0964818385864F4
:1057A000002010BD93F8740018B992485864002086
:1057B000F7E713600020908090601046F1E72DE934
:1057C000F04F8FB004460D4692469B46199F4FF608
:1057D000FF70854203D015B105F4004020B985481B
:1057E00046380FB0BDE8F08FD4E90601B0FBF1F008
:1057F0004000B0FBF1F0012801D2012006E0D4E91D
:105800000601B0FBF1F04000B0FBF1F05844D4E9E0
:105810000612B1FBF2F10AFB01001FFA80F903A89E
:105820003021CDE90010E169206909FB0103002264
:1058300015212046FCF772FA8046B8F1000F01D01E
:105840004046CEE705F40040F0B1BDF80E00D8B9EF
:105850009DF8100000F0C200C02815D13E463580EA
:105860000DF11901B01C03F072FE9DF8180086F8C6
:1058700022000598401C08B9002000E005987062DD
:10588000A6F828900020ACE75A484638A9E7F0B5BA
:1058900089B004460D46206890F8740028B9554830
:1058A00021684864002009B0F0BD002707A808A9B6
:1058B0000022CDE90225CDE904105048CDE90020B1
:1058C000A1880423A268206800F015FD06465EB991
:1058D000BDF82000A0800798401CA060288820F414
:1058E000004028802F4601E0206846643846DAE709
:1058F00001460868C06F404A904204D03D481838BD
:105900000A6850647047086890F8740018B93948FC
:105910000A685064F6E70020F4E770B5044636499B
:10592000E06F884203D033481838606470BD94F843
:10593000740010B92F486064F8E700212046FDF795
:105940002BFA05462046FEF763F805462046FDF78C
:1059500020FF0546204600F05DFE05462846E5E7A7
:105960002DE9F04303464FF0000CDFF88C90D86F20
:10597000484504D01F4818385864BDE8F08393F8B0
:10598000740010B91B485864F7E7D3E90609B0FB67
:10599000F9F51E6AD3E90609B0FBF9F04000B0FB47
:1059A000F9F0012801D2012006E0D3E90609B0FB95
:1059B000F9F04000B0FBF9F08046D869841FB01EB2
:1059C000A5EB080900FB09F0471C11B107FB04F027
:1059D000086012B1D86C604310606046CDE770B5C6
:1059E00004460E460449E06F884209D00148183841
:1059F000606470BDF0D8FFFF15030920BF57000891
:105A000094F8740010B9F7486064F2E73146204614
:105A1000FEF76BF80546002D02DA65642846E8E7D4
:105A20000020E6E770B504460E46EF49E06F884275
:105A300003D0EC481838606470BD94F8740010B955
:105A4000E8486064F8E731462046FEF7DFFD05468A
:105A5000002D02DA65642846EEE70020ECE7F8B591
:105A600004460E46E049E06F884203D0DD4818380E
:105A70006064F8BD94F8740010B9DA486064F8E71F
:105A800000BF6A463146204603F0D8FC0546002D8B
:105A900002DA65642846ECE731462046FEF77AFFD5
:105AA0000546002D02DA65642846E2E70098816920
:105AB0008068401C08B9002001E00098806881429D
:105AC00001D3012000E0002005462846D1E7F8B5C3
:105AD00004460E46C449E06F884203D0C1481838D6
